{
  "contractName": "ExerciseC6A",
  "abi": [
    {
      "inputs": [],
      "payable": false,
      "stateMutability": "nonpayable",
      "type": "constructor"
    },
    {
      "constant": true,
      "inputs": [
        {
          "internalType": "address",
          "name": "account",
          "type": "address"
        }
      ],
      "name": "isUserRegistered",
      "outputs": [
        {
          "internalType": "bool",
          "name": "",
          "type": "bool"
        }
      ],
      "payable": false,
      "stateMutability": "view",
      "type": "function"
    },
    {
      "constant": true,
      "inputs": [],
      "name": "isOperational",
      "outputs": [
        {
          "internalType": "bool",
          "name": "",
          "type": "bool"
        }
      ],
      "payable": false,
      "stateMutability": "view",
      "type": "function"
    },
    {
      "constant": false,
      "inputs": [
        {
          "internalType": "address",
          "name": "account",
          "type": "address"
        },
        {
          "internalType": "bool",
          "name": "isAdmin",
          "type": "bool"
        }
      ],
      "name": "registerUser",
      "outputs": [],
      "payable": false,
      "stateMutability": "nonpayable",
      "type": "function"
    },
    {
      "constant": false,
      "inputs": [
        {
          "internalType": "bool",
          "name": "mode",
          "type": "bool"
        }
      ],
      "name": "setOperatingStatus",
      "outputs": [],
      "payable": false,
      "stateMutability": "nonpayable",
      "type": "function"
    }
  ],
  "bytecode": "0x60806040526001600260006101000a81548160ff021916908315150217905550600060405190808252806020026020018201604052801561004f5781602001602082028038833980820191505090505b50600390805190602001906100659291906100b8565b5034801561007257600080fd5b50336000806101000a81548173ffffffffffffffffffffffffffffffffffffffff021916908373ffffffffffffffffffffffffffffffffffffffff160217905550610185565b828054828255906000526020600020908101928215610131579160200282015b828111156101305782518260006101000a81548173ffffffffffffffffffffffffffffffffffffffff021916908373ffffffffffffffffffffffffffffffffffffffff160217905550916020019190600101906100d8565b5b50905061013e9190610142565b5090565b61018291905b8082111561017e57600081816101000a81549073ffffffffffffffffffffffffffffffffffffffff021916905550600101610148565b5090565b90565b610a26806101946000396000f3fe608060405234801561001057600080fd5b506004361061004c5760003560e01c8063110466ed14610051578063163f752214610081578063951faf00146100dd578063cd905dff1461012d575b600080fd5b61007f6004803603602081101561006757600080fd5b8101908080351515906020019092919050505061014f565b005b6100c36004803603602081101561009757600080fd5b81019080803573ffffffffffffffffffffffffffffffffffffffff169060200190929190505050610509565b604051808215151515815260200191505060405180910390f35b61012b600480360360408110156100f357600080fd5b81019080803573ffffffffffffffffffffffffffffffffffffffff1690602001909291908035151590602001909291905050506105e7565b005b610135610871565b604051808215151515815260200191505060405180910390f35b6000809054906101000a900473ffffffffffffffffffffffffffffffffffffffff1673ffffffffffffffffffffffffffffffffffffffff163373ffffffffffffffffffffffffffffffffffffffff1614610211576040517f08c379a000000000000000000000000000000000000000000000000000000000815260040180806020018281038252601c8152602001807f43616c6c6572206973206e6f7420636f6e7472616374206f776e65720000000081525060200191505060405180910390fd5b600260009054906101000a900460ff161515811515141561027d576040517f08c379a000000000000000000000000000000000000000000000000000000000815260040180806020018281038252602d81526020018061097e602d913960400191505060405180910390fd5b600160003373ffffffffffffffffffffffffffffffffffffffff1673ffffffffffffffffffffffffffffffffffffffff16815260200190815260200160002060000160019054906101000a900460ff1661033f576040517f08c379a00000000000000000000000000000000000000000000000000000000081526004018080602001828103825260168152602001807f43616c6c6572206973206e6f7420616e2061646d696e0000000000000000000081525060200191505060405180910390fd5b600080905060008090505b6003805490508110156103d8573373ffffffffffffffffffffffffffffffffffffffff166003828154811061037b57fe5b9060005260206000200160009054906101000a900473ffffffffffffffffffffffffffffffffffffffff1673ffffffffffffffffffffffffffffffffffffffff1614156103cb57600191506103d8565b808060010191505061034a565b508015610430576040517f08c379a00000000000000000000000000000000000000000000000000000000081526004018080602001828103825260288152602001806109566028913960400191505060405180910390fd5b60033390806001815401808255809150509060018203906000526020600020016000909192909190916101000a81548173ffffffffffffffffffffffffffffffffffffffff021916908373ffffffffffffffffffffffffffffffffffffffff160217905550506002600380549050106105055781600260006101000a81548160ff02191690831515021790555060006040519080825280602002602001820160405280156104ed5781602001602082028038833980820191505090505b5060039080519060200190610503929190610888565b505b5050565b60008073ffffffffffffffffffffffffffffffffffffffff168273ffffffffffffffffffffffffffffffffffffffff161415610590576040517f08c379a00000000000000000000000000000000000000000000000000000000081526004018080602001828103825260228152602001806109ab6022913960400191505060405180910390fd5b600160008373ffffffffffffffffffffffffffffffffffffffff1673ffffffffffffffffffffffffffffffffffffffff16815260200190815260200160002060000160009054906101000a900460ff169050919050565b600260009054906101000a900460ff1661064c576040517f08c379a00000000000000000000000000000000000000000000000000000000081526004018080602001828103825260258152602001806109cd6025913960400191505060405180910390fd5b6000809054906101000a900473ffffffffffffffffffffffffffffffffffffffff1673ffffffffffffffffffffffffffffffffffffffff163373ffffffffffffffffffffffffffffffffffffffff161461070e576040517f08c379a000000000000000000000000000000000000000000000000000000000815260040180806020018281038252601c8152602001807f43616c6c6572206973206e6f7420636f6e7472616374206f776e65720000000081525060200191505060405180910390fd5b600160008373ffffffffffffffffffffffffffffffffffffffff1673ffffffffffffffffffffffffffffffffffffffff16815260200190815260200160002060000160009054906101000a900460ff16156107d1576040517f08c379a000000000000000000000000000000000000000000000000000000000815260040180806020018281038252601b8152602001807f5573657220697320616c726561647920726567697374657265642e000000000081525060200191505060405180910390fd5b6040518060400160405280600115158152602001821515815250600160008473ffffffffffffffffffffffffffffffffffffffff1673ffffffffffffffffffffffffffffffffffffffff16815260200190815260200160002060008201518160000160006101000a81548160ff02191690831515021790555060208201518160000160016101000a81548160ff0219169083151502179055509050505050565b6000600260009054906101000a900460ff16905090565b828054828255906000526020600020908101928215610901579160200282015b828111156109005782518260006101000a81548173ffffffffffffffffffffffffffffffffffffffff021916908373ffffffffffffffffffffffffffffffffffffffff160217905550916020019190600101906108a8565b5b50905061090e9190610912565b5090565b61095291905b8082111561094e57600081816101000a81549073ffffffffffffffffffffffffffffffffffffffff021916905550600101610918565b5090565b9056fe43616c6c65722068617320616c72656164792063616c6c656420746869732066756e6374696f6e2e4e6577206d6f6465206d75737420626520646966666572656e742066726f6d206578697374696e67206d6f6465276163636f756e7427206d75737420626520612076616c696420616464726573732e436f6e74726163742069732063757272656e746c79206e6f74206f7065726174696f6e616ca265627a7a72315820b27abee4b190323d97914555443fd6cda1e3b3862c3bec0d133fcef19a4c244264736f6c63430005100032",
  "source": "pragma solidity ^0.5.16;\n\ncontract ExerciseC6A {\n\n    /********************************************************************************************/\n    /*                                       DATA VARIABLES                                     */\n    /********************************************************************************************/\n\n    uint constant M = 2;\n    struct UserProfile {\n        bool isRegistered;\n        bool isAdmin;\n    }\n\n    address private contractOwner;                  // Account used to deploy contract\n    mapping(address => UserProfile) userProfiles;   // Mapping for storing user profiles\n\n    bool private operational = true;\n\n    address[] multiCalls = new address[](0);\n\n    /********************************************************************************************/\n    /*                                       EVENT DEFINITIONS                                  */\n    /********************************************************************************************/\n\n    // No events\n\n    /**\n    * @dev Constructor\n    *      The deploying account becomes contractOwner\n    */\n    constructor\n                                (\n                                ) \n                                public \n    {\n        contractOwner = msg.sender;\n    }\n\n    /********************************************************************************************/\n    /*                                       FUNCTION MODIFIERS                                 */\n    /********************************************************************************************/\n\n    // Modifiers help avoid duplication of code. They are typically used to validate something\n    // before a function is allowed to be executed.\n\n    /**\n    * @dev Modifier that requires the \"ContractOwner\" account to be the function caller\n    */\n    modifier requireContractOwner()\n    {\n        require(msg.sender == contractOwner, \"Caller is not contract owner\");\n        _;\n    }\n\n    /**\n    * @dev Modifier that requires the \"operational\" boolean variable to be \"true\"\n    *      This is used on all state changing functions to pause the contract in \n    *      the event there is an issue that needs to be fixed\n    */\n    modifier requireIsOperational() \n    {\n        require(operational, \"Contract is currently not operational\");\n        _;  // All modifiers require an \"_\" which indicates where the function body will be added\n    }\n\n    /********************************************************************************************/\n    /*                                       UTILITY FUNCTIONS                                  */\n    /********************************************************************************************/\n\n   /**\n    * @dev Check if a user is registered\n    *\n    * @return A bool that indicates if the user is registered\n    */   \n    function isUserRegistered\n                            (\n                                address account\n                            )\n                            external\n                            view\n                            returns(bool)\n    {\n        require(account != address(0), \"'account' must be a valid address.\");\n        return userProfiles[account].isRegistered;\n    }\n\n    /**\n    * @dev Get operating status of contract\n    *\n    * @return A bool that is the current operating status\n    */      \n    function isOperational() \n                            public \n                            view \n                            returns(bool) \n    {\n        return operational;\n    }\n\n    /********************************************************************************************/\n    /*                                     SMART CONTRACT FUNCTIONS                             */\n    /********************************************************************************************/\n\n    function registerUser\n                                (\n                                    address account,\n                                    bool isAdmin\n                                )\n                                external\n                                requireIsOperational\n                                requireContractOwner\n    {\n        require(!userProfiles[account].isRegistered, \"User is already registered.\");\n\n        userProfiles[account] = UserProfile({\n                                                isRegistered: true,\n                                                isAdmin: isAdmin\n                                            });\n    }\n\n    /**\n    * @dev Sets contract operations on/off\n    *\n    * When operational mode is disabled, all write transactions except for this one will fail\n    */    \n    function setOperatingStatus\n                            (\n                                bool mode\n                            ) \n                            external\n                            requireContractOwner \n    {\n        require(mode != operational, \"New mode must be different from existing mode\");\n        require(userProfiles[msg.sender].isAdmin, \"Caller is not an admin\");\n\n        //TODO Store the names in a mapping for an optimization\n        bool isDuplicate = false;\n        for(uint c = 0; c < multiCalls.length; c++) { //Pay attetntion for it - Should it be here? It could hit the block gas limit, preventing the contract from running any further\n            if (multiCalls[c] == msg.sender) {\n                isDuplicate = true;\n                break;\n            }\n        }\n        // -> Avoid using arrays in scenarios which it grows very long, 10 or 20 items.\n            // -> The best solution for that is having an external client perform the task of repeatedly calling the function with each entity that is there\n        require(!isDuplicate, \"Caller has already called this function.\");\n\n        multiCalls.push(msg.sender);\n        if (multiCalls.length >= M) {\n            operational = mode;      \n            multiCalls = new address[](0); //important - if you forget that, every subsequent call would have the length condition pass\n        }\n    }\n}\n\n",
  "sourcePath": "/Users/brunopardini/Documents/Udacity/Blockchain/repository/Course6-Exercises/Exercise A/contracts/ExerciseC6A.sol",
  "compiler": {
    "name": "solc",
    "version": "0.5.16+commit.9c3226ce.Emscripten.clang"
  },
  "schemaVersion": "3.3.3",
  "updatedAt": "2021-03-20T10:15:27.149Z",
  "devdoc": {
    "methods": {
      "constructor": {
        "details": "Constructor     The deploying account becomes contractOwner"
      },
      "isOperational()": {
        "details": "Get operating status of contract",
        "return": "A bool that is the current operating status"
      },
      "isUserRegistered(address)": {
        "details": "Check if a user is registered",
        "return": "A bool that indicates if the user is registered"
      },
      "setOperatingStatus(bool)": {
        "details": "Sets contract operations on/off    * When operational mode is disabled, all write transactions except for this one will fail"
      }
    }
  },
  "userdoc": {
    "methods": {
      "registerUser(address,bool)": {
        "notice": "*****************************************************************************************"
      }
    }
  }
}